:020000040800F2
:1000000000000220491C0008D9070008DB0700088F
:10001000DD070008DF070008E10700080000000016
:10002000000000000000000000000000E3070008DE
:10003000E507000800000000E7070008E9070008DE
:10004000991C0008991C0008991C0008991C0008BC
:10005000991C0008991C0008991C0008991C0008AC
:10006000991C0008991C0008991C0008991C00089C
:10007000991C0008991C0008991C0008991C00088C
:10008000F107000801080008991C0008991C0008E5
:10009000991C0008991C0008991C0008991C00086C
:1000A000991C0008991C0008991C0008991C00085C
:1000B000991C0008991C0008991C0008991C00084C
:1000C000991C0008991C0008991C0008991C00083C
:1000D000991C0008991C000811080008991C0008C8
:1000E000991C0008991C0008991C0008991C00081C
:1000F000991C0008991C0008991C0008991C00080C
:10010000991C0008991C0008991C0008991C0008FB
:10011000991C0008991C0008991C0008991C0008EB
:10012000991C0008991C0008991C0008991C0008DB
:10013000991C0008991C0008991C0008991C0008CB
:10014000991C0008991C0008991C0008991C0008BB
:10015000991C0008991C0008991C0008991C0008AB
:10016000991C0008991C0008991C0008991C00089B
:10017000991C0008991C0008991C00080000000048
:08018000991C0008991C0008FD
:1001880010B5054C237833B9044B13B10448AFF3C9
:1001980000800123237010BD0C0000200000000027
:1001A800F41C000808B5034B1BB103490348AFF31F
:1001B800008008BD0000000010000020F41C0008AA
:1001C80053B94AB9002908BF00281CBF4FF0FF31B6
:1001D8004FF0FF3000F074B9ADF1080C6DE904CEB2
:1001E80000F006F8DDF804E0DDE9022304B070470A
:1001F8002DE9F047089D04468E46002B4DD18A42D2
:10020800944669D9B2FA82F252B101FA02F3C2F104
:10021800200120FA01F10CFA02FC41EA030E944095
:100228004FEA1C48210CBEFBF8F61FFA8CF708FBB6
:1002380016E341EA034306FB07F199420AD91CEB8E
:10024800030306F1FF3080F01F81994240F21C81C0
:10025800023E63445B1AA4B2B3FBF8F008FB103308
:1002680044EA034400FB07F7A7420AD91CEB04043D
:1002780000F1FF3380F00A81A74240F2078164440D
:10028800023840EA0640E41B00261DB1D440002392
:10029800C5E900433146BDE8F0878B4209D9002DF6
:1002A80000F0EF800026C5E9000130463146BDE880
:1002B800F087B3FA83F6002E4AD18B4202D38242EA
:1002C80000F2F980841A61EB030301209E46002D99
:1002D800E0D0C5E9004EDDE702B9FFDEB2FA82F2EE
:1002E800002A40F09280A1EB0C014FEA1C471FFA4C
:1002F8008CFE0126200CB1FBF7F307FB131140EA33
:1003080001410EFB03F0884208D91CEB010103F1FF
:10031800FF3802D2884200F2CB804346091AA4B2C1
:10032800B1FBF7F007FB101144EA01440EFB00FE95
:10033800A64508D91CEB040400F1FF3102D2A645FA
:1003480000F2BB800846A4EB0E0440EA03409CE799
:10035800C6F12007B34022FA07FC4CEA030C20FA46
:1003680007F401FA06F31C43F9404FEA1C4900FA66
:1003780006F3B1FBF9F8200C1FFA8CFE09FB1811E3
:1003880040EA014108FB0EF0884202FA06F20BD956
:100398001CEB010108F1FF3A80F08880884240F2A6
:1003A8008580A8F102086144091AA4B2B1FBF9F0EA
:1003B80009FB101144EA014100FB0EFE8E4508D9E5
:1003C8001CEB010100F1FF346CD28E456AD902386A
:1003D800614440EA0840A0FB0294A1EB0E01A1424F
:1003E800C846A64656D353D05DB1B3EB080261EBBD
:1003F8000E0101FA07F722FA06F3F1401F43C5E997
:10040800007100263146BDE8F087C2F12003D840CC
:100418000CFA02FC21FA03F3914001434FEA1C470E
:100428001FFA8CFEB3FBF7F007FB10360B0C43EA00
:10043800064300FB0EF69E4204FA02F408D91CEBB0
:10044800030300F1FF382FD29E422DD902386344AE
:100458009B1B89B2B3FBF7F607FB163341EA03414E
:1004680006FB0EF38B4208D91CEB010106F1FF389D
:1004780016D28B4214D9023E6144C91A46EA004694
:1004880038E72E46284605E70646E3E61846F8E626
:100498004B45A9D2B9EB020864EB0C0E0138A3E76F
:1004A8004646EAE7204694E74046D1E7D0467BE750
:1004B800023B614432E7304609E76444023842E7C8
:1004C800704700BF72B6FEE700B595B03022002134
:1004D80008A801F003FC00230393049305930693F3
:1004E80007930193204A116C41F080511164126CFA
:1004F80002F080520192019A02931C4B1A6842F44E
:1005080080421A601B6803F480430293029B012314
:1005180008934FF48033099302220E924FF480031C
:100528000F9304231093A82111911292139308A8F2
:1005380000F06EFC98B90F23039302230493002361
:1005480005934FF4A05306934FF480530793052166
:1005580003A800F0C3FE20B915B05DF804FBFFF74F
:10056800B1FFFFF7AFFF00BF003802400070004046
:1005780008B501F02FFBFFF7A7FF00F005F800F022
:100588006BF800F08BF8FEE7F0B58BB0002405940B
:10059800069407940894099400942B4B1A6B42F024
:1005A80010021A631A6B02F010020092009A01946A
:1005B8001A6B42F004021A631A6B02F004020192E9
:1005C800019A02941A6B42F020021A631A6B02F025
:1005D80020020292029A03941A6B42F080021A6374
:1005E8001A6B02F080020392039A04941A6B42F089
:1005F80001021A631B6B03F001030493049B134F5E
:1006080001224FF4C061384601F030F81C230593ED
:1006180006940125079505A90D4800F035FF4FF40C
:10062800C0630593069507950226089605A93846DE
:1006380000F02AFF05950694079605A9054800F0DD
:1006480023FF0BB0F0BD00BF003802400014024089
:10065800001002400000024010B582B0002401944E
:100668000D4B1A6B42F400121A631B6B03F4001350
:100678000193019B22462146102001F02BFA1020FD
:1006880001F060FA22462146112001F023FA1120D8
:1006980001F058FA02B010BD0038024008B50A4807
:1006A8000A4B03604FF4E133436000238360C36067
:1006B80003610C2242618361C36100F0AFF900B9A4
:1006C80008BDFFF7FFFEFBE7E800002000440040FC
:1006D80030B589B0002303930493059306930793D9
:1006E8000268354B9A4201D009B030BD0446002556
:1006F800019503F5FA331A6C42F400321A641A6C45
:1007080002F400320192019A02951A6B42F001023A
:100718001A631B6B03F001030293029B0C230393E0
:1007280002230493032306930723079303A923486B
:1007380000F0AAFE2248234B03604FF00063436099
:100748008560C5604FF480630361456185614FF43E
:100758008073C3610562456200F0F8FF28BB184B3F
:10076800A3639C631848194B03604FF00063436010
:10077800402383600023C3604FF4806202614361B9
:1007880083614FF48072C2610362436200F0DEFF4E
:1007980070B90D4B63639C6300221146262001F05B
:1007A80099F9262001F0CEF99EE7FFF78BFED6E7F0
:1007B800FFF788FEEDE700BF00440040000002405C
:1007C800280000208860024088000020A0600240C5
:1007D800FEE7FEE7FEE7FEE7FEE770477047704773
:1007E80008B501F011FA08BD08B5024801F072F821
:1007F80008BD00BF2800002008B5024801F06AF8CB
:1008080008BD00BF8800002008B5024800F0C0F904
:1008180008BD00BFE800002082B0002100910B4B0A
:100828005A6C42F480425A645A6C02F48042009234
:10083800009A01911A6C42F080521A641B6C03F002
:1008480080530193019B02B0704700BF00380240FB
:10085800026802F10C0353E8003F23F490730C3252
:1008680042E800310029F3D1026802F1140353E889
:10087800003F23F00103143242E800310029F3D18C
:10088800036B012B05D0202380F83E30002303633F
:100898007047026802F10C0353E8003F23F010038D
:1008A8000C3242E800310029F3D1ECE790F83D30F2
:1008B800DBB2212B01D0022070478368B3F5805F3B
:1008C80017D0036A5A1C02621A7803685A60C38CEC
:1008D8009BB2013B9BB2C3844BB90268D36823F037
:1008E8008003D3600268D36843F04003D3600020DC
:1008F80070470369002BE4D1036A1B880268C3F3BD
:1009080008035360036A02330362E0E738B504461C
:100918000268136923F44053C1680B431361836869
:100928000269134342691343C2691A430168CB68D9
:1009380023F4164323F00C031343CB600268536976
:1009480023F4407381690B4353610368314A93422E
:1009580006D002F58062934202D000F075FD01E0F6
:1009680000F082FDE369B3F5004F29D00021031898
:1009780049411B1841F10001C90041EA5371DB00EC
:10098800181863684FEA83024FEA937341F1000134
:10099800FFF716FC204DA5FB00325109642303FB29
:1009A80011031B013233A5FB03235B0903F0F0029B
:1009B80002EB011203F00F03216813448B6038BD6A
:1009C8000023021843EB0301121841F10001C9008A
:1009D80041EA5271D200101841F100016268921880
:1009E8005B41FFF7EDFB0C4DA5FB00325109642379
:1009F80003FB1103DB003233A5FB03235B095A0019
:100A080002F4F87202EB011203F0070321681344A1
:100A18008B60D4E7001001401F85EB5158B310B527
:100A2800044690F83D300BB3242384F83D30226807
:100A3800D36823F40053D3602046FFF767FF22688A
:100A4800136923F4904313612268536923F02A033E
:100A580053612268D36843F40053D36000202064B4
:100A6800202384F83D3084F83E3010BD80F83C30B7
:100A7800FFF72EFED8E701207047704708B50168D8
:100A8800CA6822F04002CA60202280F83D20FFF7A1
:100A9800F4FF002008BD7047704708B5806B00233D
:100AA800C385C384FFF7F8FF08BD704790F83E3050
:100AB800DBB2222B67D18368B3F5805F4DD0826AA1
:100AC800B3F5805F04D0002B54D10369002B51D1BA
:100AD80003685B681370836A01338362C38D9BB2BA
:100AE800013B9BB2C385002B4FD100B583B0026890
:100AF800D36823F02003D3600268D36823F480739B
:100B0800D3600268536923F001035361202380F8FE
:100B18003E30036B012B33D100230363026802F1DB
:100B28000C0353E8003F23F010030C3242E8003175
:100B38000029F3D103681A6812F0100F06D00022BA
:100B480001921A6801925B680193019B818DFFF7FE
:100B5800ACFF002003B05DF804FB0269002AAED1A7
:100B6800826A03685B68C3F308031380836A0233ED
:100B78008362B3E703685B6803F07F031370AAE737
:100B8800FFF789FFE5E70220704700207047000063
:100B980030B583B0044602681368D068516913F011
:100BA8000F0505D113F0200F02D010F0200F19D136
:100BB8002DB111F0010119D110F4907F16D1216BDC
:100BC80001297DD013F0800F03D010F0800F40F082
:100BD800158113F0400F03D010F0400F40F0128140
:100BE80003B030BD2046FFF761FFF9E713F0010FAE
:100BF80006D010F4807F03D0226C42F001022264F8
:100C080013F0040F04D019B1226C42F002022264DE
:100C180013F0020F04D019B1226C42F004022264CE
:100C280013F0080F07D010F0200F00D119B1226C73
:100C380042F008022264226C002AD1D013F0200F5F
:100C480002D010F0200F29D123685B6903F040031C
:100C5800226C12F0080F00D163B32046FFF7F8FDAD
:100C680023685B6913F0400F20D0226802F1140357
:100C780053E8003F23F04003143242E800310029D2
:100C8800F3D1A36B73B1614A1A65A06B00F00EFE35
:100C98000028A5D0A06B036D9847A1E72046FFF771
:100CA80005FFD1E72046FFF7F7FE99E72046FFF753
:100CB800F3FE95E72046FFF7EFFE002323648FE756
:100CC80013F0100F3FF47EAF10F0100F3FF47AAF1F
:100CD800002301931368019353680193019B53699F
:100CE80013F0400F50D0A26B13685B689BB2002BC7
:100CF8003FF476AFA18D99427FF672AFE385D36951
:100D0800B3F5807F37D0226802F10C0353E8003F27
:100D180023F480730C3242E800310029F3D12268B1
:100D280002F1140353E8003F23F00103143242E8B0
:100D380000310029F3D1226802F1140353E8003F7F
:100D480023F04003143242E800310029F3D1202374
:100D580084F83E3000232363226802F10C0353E831
:100D6800003F23F010030C3242E800310029F3D190
:100D7800A06B00F051FDA18DE38D9BB2C91A89B219
:100D88002046FFF792FE2BE7A18DE38D9BB2C91A8F
:100D980089B2E38D9BB2002B3FF422AF00293FF4C8
:100DA8001FAF226802F10C0353E8003F23F490734D
:100DB8000C3242E800300028F3D1226802F1140313
:100DC80053E8003F23F00103143242E800300028C2
:100DD800F3D1202384F83E3000232363226802F1F4
:100DE8000C0353E8003F23F010030C3242E80030B4
:100DF8000028F3D12046FFF758FEF1E62046FFF71A
:100E080055FDEDE62046FFF739FEE9E6A30A00089E
:100E1800002800F0E08170B582B00446036813F042
:100E2800010F3BD09F4B9B6803F00C03042B2CD085
:100E38009C4B9B6803F00C03082B21D06368B3F527
:100E4800803F4FD0B3F5A02F52D0964B1A6822F4AA
:100E580080321A601A6822F480221A606368002BB4
:100E680050D000F0DDFE05468E4B1B6813F4003FA2
:100E780014D100F0D5FE401B6428F5D90320B1E158
:100E8800884B5B6813F4800FD8D0864B1B6813F42B
:100E9800003F03D06368002B00F09F81236813F0A4
:100EA800020F54D07F4B9B6813F00C0F3ED07D4B44
:100EB8009B6803F00C03082B33D0E368002B68D041
:100EC800794B01221A6000F0ABFE0546754B1B6892
:100ED80013F0020F54D100F0A3FE401B0228F5D9ED
:100EE80003207FE16F4A136843F480331360B5E74A
:100EF8006C4B1A6842F480221A601A6842F48032F5
:100F08001A60ABE700F08CFE0546664B1B6813F4CD
:100F1800003FC3D000F084FE401B6428F5D90320AD
:100F280060E1604B5B6813F4800FC6D15D4B1B68B2
:100F380013F0020F03D0E368012B40F05081594AA7
:100F4800136823F0F803216943EAC1031360236897
:100F580013F0080F42D063696BB3534B0122C3F8F7
:100F6800802E00F05DFE05464E4B5B6F13F0020FBE
:100F780034D100F055FE401B0228F5D9032031E199
:100F8800484A136823F0F803216943EAC103136050
:100F9800DDE7454B00221A6000F042FE0546414B52
:100FA8001B6813F0020FD2D000F03AFE401B022853
:100FB800F5D9032016E13C4B0022C3F8802E00F03F
:100FC8002FFE0546374B5B6F13F0020F06D000F07B
:100FD80027FE401B0228F5D9032003E1236813F0FC
:100FE800040F77D02F4B1B6C13F0805F33D1002395
:100FF80001932C4B1A6C42F080521A641B6C03F05C
:1010080080530193019B0125284B1B6813F4807FB3
:1010180023D0A368012B34D0052B38D0214B1A6F6D
:1010280022F001021A671A6F22F004021A67A368F5
:10103800002B3DD000F0F4FD06461A4B1B6F13F051
:10104800020F46D100F0ECFD801B41F28833984234
:10105800F3D90320C6E00025D6E7144A136843F401
:101068008073136000F0DCFD0646104B1B6813F418
:10107800807FCED100F0D4FD801B0228F5D9032053
:10108800B0E0084A136F43F001031367CFE7054B3D
:101098001A6F42F004021A671A6F42F001021A67C7
:1010A800C5E700BF0038024000004742007000401A
:1010B80000F0B6FD0646524B1B6F13F0020F08D026
:1010C80000F0AEFD801B41F288339842F3D903202B
:1010D80088E0EDB9A369002B00F08380484A926844
:1010E80002F00C02082A51D0022B17D0454B0022DF
:1010F8001A6600F095FD0446414B1B6813F0007F0B
:1011080042D000F08DFD001B0228F5D9032069E0CC
:101118003B4A136C23F080531364DBE7394B0022FE
:101128001A6600F07DFD0546354B1B6813F0007FFD
:1011380006D000F075FD401B0228F5D9032051E0C8
:10114800E369226A1343626A43EA8213A26A520875
:10115800013A43EA0243E26A43EA0263284A5360D7
:10116800284B01221A6600F05BFD0446244B1B68DD
:1011780013F0007F06D100F053FD001B0228F5D9BB
:1011880003202FE000202DE000202BE0012B2BD0A6
:101198001B4B5B6803F48001E269914226D103F09E
:1011A8003F02216A8A4223D1616A47F6C0721A4017
:1011B800B2EB811F1ED103F44031A26A5208013AF2
:1011C800B1EB024F18D103F07063E26AB3EB026F20
:1011D80014D1002006E001207047012002E0012020
:1011E80000E0002002B070BD0120FBE70120F9E714
:1011F8000120F7E70120F5E70120F3E70120F1E7F7
:10120800003802400000474208B5314B9B6803F0A4
:101218000C03042B57D0082B57D12D4B5A6802F0DA
:101228003F025B6813F4800F2AD0294B5968C1F339
:10123800881C4FEA4C11B1EB0C006EEB0E0E4FEA16
:101248008E1343EA90638101091A63EB0E03DB00F6
:1012580043EA5173C90011EB0C0C43F10003590226
:1012680000234FEA4C2041EADC51FEF7A9FF184B56
:101278005B68C3F3014301335B00B0FBF3F025E087
:10128800134B5968C1F3881C4FEA4C11B1EB0C00A1
:101298006EEB0E0E4FEA8E1343EA90638101091A32
:1012A80063EB0E03DB0043EA5173C90011EB0C0C2E
:1012B80043F10003990200234FEA8C2041EA9C5134
:1012C800FEF77EFFD3E7034800E0034808BD00BFF0
:1012D8000038024000127A000024F400002800F0D0
:1012E8009B8070B50D4604464F4B1B6803F00703FF
:1012F8008B4208D2CBB24C4A1370136803F0070331
:101308008B4240F08B80236813F0020F17D013F044
:10131800040F04D0454A936843F4E053936023686C
:1013280013F0080F04D0414A936843F46043936074
:101338003E4A936823F0F003A1680B439360236847
:1013480013F0010F32D06368012B21D09A1E012AB5
:1013580025D9364A126812F0020F61D033498A68DB
:1013680022F0030213438B6000F05AFC06462F4B11
:101378009B6803F00C036268B3EB820F16D000F091
:101388004FFC801B41F288339842F0D9032042E099
:10139800264A126812F4003FE0D101203BE0234ABC
:1013A800126812F0007FD9D1012034E01E4B1B686F
:1013B80003F00703AB4207D9EAB21B4B1A701B684C
:1013C80003F00703AB422DD1236813F0040F06D0B6
:1013D800164A936823F4E053E1680B43936023684B
:1013E80013F0080F07D0114A936823F4604321696A
:1013F80043EAC1039360FFF707FF0C4B9B68C3F3F5
:1014080003130B4AD35CD8400A4B18600A4B186880
:1014180000F0BAFB002070BD012070470120FAE7F8
:101428000120F8E70120F6E7003C024000380240BE
:10143800141D00080800002004000020014B186853
:10144800704700BF0800002008B5FFF7F7FF044BFE
:101458009B68C3F38223034AD35CD84008BD00BF0E
:1014680000380240241D000808B5FFF7E7FF044BC9
:101478009B68C3F34233034AD35CD84008BD00BF1E
:1014880000380240241D000800230F2B00F2E480DE
:1014980070B582B060E085685E000324B44025EA38
:1014A8000405CC68B4402C438460456825EA0205ED
:1014B8004C68C4F300129A402A4342605AE0DC08A0
:1014C800083450F8246003F0070295000F22AA4060
:1014D80026EA020E0A69AA4042EA0E0240F82420CF
:1014E8005CE0072200E0002202FA0EF22A430234EE
:1014F8005A4D45F824205A4A94686FEA0C0224EAA7
:101508000C054E6816F4801F01D04CEA0405544CB3
:10151800A560E46802EA04054E6816F4001F01D0CD
:101528004CEA04054E4CE560646802EA04054E681E
:1015380016F4003F01D04CEA0405494C6560246864
:1015480022404D6815F4803F01D04CEA0402444C17
:10155800226001330F2B7DD801229A400C6804EADF
:10156800020C32EA0404F4D14C6804F00304013C90
:10157800012C90D94A6802F00302032A09D0C468F2
:101588005D000322AA4024EA02048A68AA40224392
:10159800C2604A6802F00302022A90D004684FEA47
:1015A800430E032202FA0EF224EA02044A6802F009
:1015B800030202FA0EF2224302604A6812F4403F24
:1015C800C7D000220192274A546C44F480445464E2
:1015D800526C02F480420192019A9C08A51C1F4A91
:1015E80052F8255003F003024FEA820E0F2202FA46
:1015F8000EF225EA02051C4A90423FF474AF02F548
:10160800806290421AD002F58062904218D002F5AA
:101618008062904216D002F58062904214D002F5A2
:101628008062904212D002F58062904210D002F59A
:10163800806290423FF455AF082255E7012253E7F4
:10164800022251E703224FE704224DE705224BE728
:10165800062249E702B070BD704700BF003801405C
:10166800003C014000380240000002400AB181619C
:10167800704709048161704710B40368D9B2103902
:101688000C4AA2FB014212090B4CA25CC2655F29FD
:1016980009D923F47F7323F0030304338365806D32
:1016A8005DF8044B704723F47F7323F003038365CD
:1016B800F5E700BFABAAAAAA0C1D0008836A8269D5
:1016C80092B9012B0AD0022B02D00BB1002070472F
:1016D800C36A13F0807F28D100207047C36AB3F132
:1016E800C07F24D000207047B2F5005F09D0022BDC
:1016F80025D9032B25D1C36A13F0807F23D100207D
:101708007047032B03D8DFE803F01404140A002001
:101718007047C36A13F0807F0DD100207047C36AF9
:10172800B3F1C07F09D00020704701207047012025
:101738007047012070470120704701207047012041
:1017480070470020704701207047000070B50446BC
:1017580000F066FA002C5BD00546022384F8353089
:10176800002384F834302268136823F001031360DF
:1017780023681A6812F0010F0AD000F051FA431BCF
:10178800052BF5D920236365032084F8350070BD47
:101798001A68204810406168A2680A43E1680A4351
:1017A80021690A4361690A43A1690A43E1690A4355
:1017B800216A0A430243616A04291ED01A60266816
:1017C800756925F00705636A1D43042B07D1A36AD1
:1017D8001D43E36A1BB12046FFF770FF90B975619E
:1017E8002046FFF749FFE26D3F23934083600020C6
:1017F8006065012384F83530C9E7E16A206B01434D
:101808000A43DBE740236365012084F83500BEE71F
:101818000120BCE73F8010F070B50446866D00F0EB
:10182800FFF994F83530DBB2022B06D080236365CC
:10183800002384F83430012070BD054622681368FF
:1018480023F0160313602268536923F08003536161
:10185800236CE3B12268136823F00803136022683D
:10186800136823F00103136023681B6813F0010F4A
:1018780011D000F0D5F9431B052BF5D9202363655A
:10188800032084F83500002384F83430D4E7A36CAF
:10189800002BDFD1E3E7E26D3F239340B3600123E0
:1018A80084F83530002084F83400C5E790F83530E6
:1018B800DBB2022B03D08023436501207047052348
:1018C80080F835300268136823F0010313600020A4
:1018D80070470000F0B583B0044600230193724BB3
:1018E8001D68724BA3FB0535AD0A876D3E68C26D56
:1018F80008239340334210D003681A6812F0040F8B
:101908000BD01A6822F004021A60C26D08239340B3
:10191800BB60436D43F001034365E26D01239340CF
:10192800334209D02268526912F0800F04D0BB609C
:10193800636D43F002036365E26D04239340334211
:1019480009D02268126812F0020F04D0BB60636DE0
:1019580043F004036365E26D10239340334224D0BF
:101968002268126812F0080F1FD0BB6023681A683B
:1019780012F4802F0DD01B6813F4002F04D1236CB0
:101988009BB12046984710E0A36C73B12046984756
:101998000BE01A6812F4807F03D11A6822F008025B
:1019A8001A60236C0BB120469847E26D20239340C0
:1019B800334255D02268126812F0100F50D0BB6025
:1019C80094F83530DBB2052B0ED023681A6812F470
:1019D800802F33D01B6813F4002F2AD1636C002B9F
:1019E8003ED0204698473BE02268136823F0160350
:1019F80013602268536923F080035361236CA3B1F9
:101A08002268136823F008031360E26D3F239340B4
:101A1800BB60012384F83530002384F83430236D0B
:101A2800002B3FD0204698473CE0A36C002BE7D121
:101A3800EBE7E36BA3B12046984711E01A6812F46C
:101A4800807F09D11A6822F010021A60012384F8F5
:101A58003530002384F83430E36B0BB120469847C7
:101A6800636DFBB1636D13F0010F17D0052384F884
:101A780035302268136823F001031360019B01339A
:101A88000193AB4204D823681B6813F0010FF5D10A
:101A9800012384F83530002384F83430E36C0BB12B
:101AA8002046984703B0F0BD08000020B5814E1BC2
:101AB800074AD36823F4E0631B041B0C000200F4FC
:101AC800E060034343F0BF6343F40033D3607047DF
:101AD80000ED00E000B5194BDB68C3F30223C3F146
:101AE800070CBCF1040F28BF4FF0040C03F1040EDF
:101AF800BEF1060F18D9033B4FF0FF3E0EFA0CFC5F
:101B080021EA0C0199400EFA03F322EA0303194370
:101B180000280BDB0901C9B200F1604000F5614003
:101B280080F800135DF804FB0023E5E700F00F00E0
:101B38000901C9B2024B1954F4E700BF00ED00E0F7
:101B480014ED00E0002807DB00F01F024009012324
:101B58009340024A42F82030704700BF00E100E09D
:101B68000138B0F1807F0BD24FF0E0235861054A6D
:101B7800F02182F823100020986107221A6170472B
:101B88000120704700ED00E010B504460E4B1878B0
:101B98004FF47A73B3FBF0F30C4A1068B0FBF3F020
:101BA800FFF7DEFF68B90F2C01D901200AE00022F7
:101BB80021464FF0FF30FFF78DFF054B1C600020DA
:101BC80000E0012010BD00BF000000200800002038
:101BD8000400002008B50B4B1A6842F400721A6022
:101BE8001A6842F480621A601A6842F480721A60B5
:101BF8000320FFF75DFF0F20FFF7C6FFFEF70CFE7F
:101C0800002008BD003C0240034A1168034B1B78C2
:101C18000B441360704700BF2C0100200000002017
:101C2800014B1868704700BF2C010020034AD2F806
:101C3800883043F47003C2F88830704700ED00E044
:101C4800DFF834D00D480E490E4A002302E0D4587C
:101C5800C4500433C4188C42F9D30B4A0B4C0023EC
:101C680001E013600432A242FBD3FFF7DFFF00F06C
:101C780011F8FEF77DFC70470000022000000020EC
:101C88000C0000203C1D00080C0000203001002042
:101C9800FEE7000070B50D4D0D4C641BA410002626
:101CA800A64209D10B4D0C4C00F020F8641BA4107F
:101CB8000026A64205D170BD55F8043B9847013669
:101CC800EEE755F8043B98470136F2E7341D000863
:101CD800341D0008341D0008381D0008024403465E
:101CE800934200D1704703F8011BF9E7F8B500BF2C
:101CF800F8BC08BC9E467047F8B500BFF8BC08BCE5
:041D08009E4670473C
:101D0C00000610160006101600000000000000006F
:101D1C000102030406070809000000000102030485
:081D2C00CCE4FF7F0100000080
:041D3400AD010008F5
:041D38008901000815
:0C1D3C0001000000100000000024F40072
:0400000508001C498A
:00000001FF
